{
    "contractName": "TokenFarm",
    "abi": [
        {
            "inputs": [
                {
                    "internalType": "contract DappToken",
                    "name": "_dappToken",
                    "type": "address"
                },
                {
                    "internalType": "contract DaiToken",
                    "name": "_daiToken",
                    "type": "address"
                }
            ],
            "stateMutability": "nonpayable",
            "type": "constructor"
        },
        {
            "inputs": [],
            "name": "daiToken",
            "outputs": [
                {
                    "internalType": "contract DaiToken",
                    "name": "",
                    "type": "address"
                }
            ],
            "stateMutability": "view",
            "type": "function"
        },
        {
            "inputs": [],
            "name": "dappToken",
            "outputs": [
                {
                    "internalType": "contract DappToken",
                    "name": "",
                    "type": "address"
                }
            ],
            "stateMutability": "view",
            "type": "function"
        },
        {
            "inputs": [],
            "name": "name",
            "outputs": [
                {
                    "internalType": "string",
                    "name": "",
                    "type": "string"
                }
            ],
            "stateMutability": "view",
            "type": "function"
        },
        {
            "inputs": [
                {
                    "internalType": "uint256",
                    "name": "_amount",
                    "type": "uint256"
                }
            ],
            "name": "stakeTokens",
            "outputs": [],
            "stateMutability": "nonpayable",
            "type": "function"
        },
        {
            "inputs": [
                {
                    "internalType": "address",
                    "name": "",
                    "type": "address"
                }
            ],
            "name": "stakingBalance",
            "outputs": [
                {
                    "internalType": "uint256",
                    "name": "",
                    "type": "uint256"
                }
            ],
            "stateMutability": "view",
            "type": "function"
        }
    ],
    "bytecode": "60c0604052600f60808190526e6441707020546f6b656e206661726d60881b60a09081526100309160009190610090565b5034801561003d57600080fd5b5060405161054f38038061054f83398101604081905261005c91610141565b600180546001600160a01b039283166001600160a01b031991821617909155600280549390921692169190911790556101b6565b82805461009c9061017b565b90600052602060002090601f0160209004810192826100be5760008555610104565b82601f106100d757805160ff1916838001178555610104565b82800160010185558215610104579182015b828111156101045782518255916020019190600101906100e9565b50610110929150610114565b5090565b5b808211156101105760008155600101610115565b6001600160a01b038116811461013e57600080fd5b50565b6000806040838503121561015457600080fd5b825161015f81610129565b602084015190925061017081610129565b809150509250929050565b600181811c9082168061018f57607f821691505b602082108114156101b057634e487b7160e01b600052602260045260246000fd5b50919050565b61038a806101c56000396000f3fe608060405234801561001057600080fd5b50600436106100575760003560e01c806306fdde031461005c57806345bc78ab1461007a5780635eb186f8146100a85780637547c7a3146100d3578063be22f546146100e8575b600080fd5b6100646100fb565b6040516100719190610233565b60405180910390f35b61009a610088366004610288565b60036020526000908152604090205481565b604051908152602001610071565b6002546100bb906001600160a01b031681565b6040516001600160a01b039091168152602001610071565b6100e66100e13660046102b8565b610189565b005b6001546100bb906001600160a01b031681565b60008054610108906102d1565b80601f0160208091040260200160405190810160405280929190818152602001828054610134906102d1565b80156101815780601f1061015657610100808354040283529160200191610181565b820191906000526020600020905b81548152906001019060200180831161016457829003601f168201915b505050505081565b6001546040516323b872dd60e01b8152336004820152306024820152604481018390526001600160a01b03909116906323b872dd906064016020604051808303816000875af11580156101e0573d6000803e3d6000fd5b505050506040513d601f19601f82011682018060405250810190610204919061030c565b503360009081526003602052604090205461022090829061032e565b3360009081526003602052604090205550565b600060208083528351808285015260005b8181101561026057858101830151858201604001528201610244565b81811115610272576000604083870101525b50601f01601f1916929092016040019392505050565b60006020828403121561029a57600080fd5b81356001600160a01b03811681146102b157600080fd5b9392505050565b6000602082840312156102ca57600080fd5b5035919050565b600181811c908216806102e557607f821691505b6020821081141561030657634e487b7160e01b600052602260045260246000fd5b50919050565b60006020828403121561031e57600080fd5b815180151581146102b157600080fd5b6000821982111561034f57634e487b7160e01b600052601160045260246000fd5b50019056fea2646970667358221220ee97873480f1b9afd8f04260f12f9dc0d4650835367b585d34b844d0c23916b564736f6c634300080b0033",
    "sourcePath": "/Users/dani/Desktop/dApp/src/contracts/TokenFarm.sol",
    "compiler": {
        "name": "solc",
        "version": "0.8.11+commit.d7f03943"
    },
    "functionHashes": {
        "daiToken()": "be22f546",
        "dappToken()": "5eb186f8",
        "name()": "06fdde03",
        "stakeTokens(uint256)": "7547c7a3",
        "stakingBalance(address)": "45bc78ab"
    },
    "gasEstimates": {
        "creation": {
            "codeDepositCost": "181200",
            "executionCost": "infinite",
            "totalCost": "infinite"
        },
        "external": {
            "daiToken()": "2403",
            "dappToken()": "2359",
            "name()": "infinite",
            "stakeTokens(uint256)": "infinite",
            "stakingBalance(address)": "2484"
        }
    }
}